{
  "_format": "hh-sol-artifact-1",
  "contractName": "Marketplace",
  "sourceName": "src/backend/contracts/Marketplace.sol",
  "abi": [
    {
      "inputs": [
        {
          "internalType": "uint256",
          "name": "_feePercent",
          "type": "uint256"
        }
      ],
      "stateMutability": "nonpayable",
      "type": "constructor"
    },
    {
      "anonymous": false,
      "inputs": [
        {
          "indexed": false,
          "internalType": "uint256",
          "name": "itemId",
          "type": "uint256"
        },
        {
          "indexed": true,
          "internalType": "address",
          "name": "nft",
          "type": "address"
        },
        {
          "indexed": false,
          "internalType": "uint256",
          "name": "tokenId",
          "type": "uint256"
        },
        {
          "indexed": false,
          "internalType": "uint256",
          "name": "price",
          "type": "uint256"
        },
        {
          "indexed": true,
          "internalType": "address",
          "name": "seller",
          "type": "address"
        },
        {
          "indexed": true,
          "internalType": "address",
          "name": "buyer",
          "type": "address"
        }
      ],
      "name": "Bought",
      "type": "event"
    },
    {
      "anonymous": false,
      "inputs": [
        {
          "indexed": false,
          "internalType": "uint256",
          "name": "itemId",
          "type": "uint256"
        },
        {
          "indexed": true,
          "internalType": "address",
          "name": "nft",
          "type": "address"
        },
        {
          "indexed": false,
          "internalType": "uint256",
          "name": "tokenId",
          "type": "uint256"
        },
        {
          "indexed": false,
          "internalType": "uint256",
          "name": "shares",
          "type": "uint256"
        },
        {
          "indexed": true,
          "internalType": "address",
          "name": "seller",
          "type": "address"
        }
      ],
      "name": "Offered",
      "type": "event"
    },
    {
      "anonymous": false,
      "inputs": [
        {
          "indexed": true,
          "internalType": "address",
          "name": "previousOwner",
          "type": "address"
        },
        {
          "indexed": true,
          "internalType": "address",
          "name": "newOwner",
          "type": "address"
        }
      ],
      "name": "OwnershipTransferred",
      "type": "event"
    },
    {
      "anonymous": false,
      "inputs": [
        {
          "indexed": false,
          "internalType": "uint256",
          "name": "itemId",
          "type": "uint256"
        },
        {
          "indexed": true,
          "internalType": "address",
          "name": "nft",
          "type": "address"
        },
        {
          "indexed": false,
          "internalType": "uint256",
          "name": "tokenId",
          "type": "uint256"
        },
        {
          "indexed": true,
          "internalType": "address",
          "name": "seller",
          "type": "address"
        },
        {
          "indexed": true,
          "internalType": "address",
          "name": "buyer",
          "type": "address"
        }
      ],
      "name": "Transfered",
      "type": "event"
    },
    {
      "inputs": [
        {
          "internalType": "uint256",
          "name": "_itemId",
          "type": "uint256"
        }
      ],
      "name": "activateNft",
      "outputs": [],
      "stateMutability": "nonpayable",
      "type": "function"
    },
    {
      "inputs": [
        {
          "internalType": "uint256",
          "name": "_itemId",
          "type": "uint256"
        }
      ],
      "name": "allowSale",
      "outputs": [],
      "stateMutability": "nonpayable",
      "type": "function"
    },
    {
      "inputs": [],
      "name": "feeAccount",
      "outputs": [
        {
          "internalType": "address payable",
          "name": "",
          "type": "address"
        }
      ],
      "stateMutability": "view",
      "type": "function"
    },
    {
      "inputs": [],
      "name": "feePercent",
      "outputs": [
        {
          "internalType": "uint256",
          "name": "",
          "type": "uint256"
        }
      ],
      "stateMutability": "view",
      "type": "function"
    },
    {
      "inputs": [
        {
          "internalType": "uint256",
          "name": "_itemId",
          "type": "uint256"
        }
      ],
      "name": "getPriceFromItem",
      "outputs": [
        {
          "internalType": "uint256",
          "name": "",
          "type": "uint256"
        }
      ],
      "stateMutability": "view",
      "type": "function"
    },
    {
      "inputs": [
        {
          "internalType": "uint256",
          "name": "_shares",
          "type": "uint256"
        }
      ],
      "name": "getPriceFromShares",
      "outputs": [
        {
          "internalType": "uint256",
          "name": "",
          "type": "uint256"
        }
      ],
      "stateMutability": "view",
      "type": "function"
    },
    {
      "inputs": [
        {
          "internalType": "uint256",
          "name": "_position",
          "type": "uint256"
        }
      ],
      "name": "getPriceRangePrice",
      "outputs": [
        {
          "internalType": "uint256",
          "name": "",
          "type": "uint256"
        }
      ],
      "stateMutability": "view",
      "type": "function"
    },
    {
      "inputs": [
        {
          "internalType": "uint256",
          "name": "_itemId",
          "type": "uint256"
        }
      ],
      "name": "getTotalShares",
      "outputs": [
        {
          "internalType": "uint256",
          "name": "",
          "type": "uint256"
        }
      ],
      "stateMutability": "view",
      "type": "function"
    },
    {
      "inputs": [],
      "name": "itemCount",
      "outputs": [
        {
          "internalType": "uint256",
          "name": "",
          "type": "uint256"
        }
      ],
      "stateMutability": "view",
      "type": "function"
    },
    {
      "inputs": [
        {
          "internalType": "uint256",
          "name": "",
          "type": "uint256"
        }
      ],
      "name": "items",
      "outputs": [
        {
          "internalType": "uint256",
          "name": "itemId",
          "type": "uint256"
        },
        {
          "internalType": "contract IERC721",
          "name": "nft",
          "type": "address"
        },
        {
          "internalType": "uint256",
          "name": "tokenId",
          "type": "uint256"
        },
        {
          "internalType": "uint256",
          "name": "shares",
          "type": "uint256"
        },
        {
          "internalType": "address payable",
          "name": "seller",
          "type": "address"
        },
        {
          "internalType": "address",
          "name": "owner",
          "type": "address"
        },
        {
          "internalType": "bool",
          "name": "available",
          "type": "bool"
        },
        {
          "internalType": "bool",
          "name": "sold",
          "type": "bool"
        }
      ],
      "stateMutability": "view",
      "type": "function"
    },
    {
      "inputs": [
        {
          "internalType": "contract IERC721",
          "name": "_nft",
          "type": "address"
        },
        {
          "internalType": "uint256",
          "name": "_tokenId",
          "type": "uint256"
        },
        {
          "internalType": "uint256",
          "name": "_shares",
          "type": "uint256"
        }
      ],
      "name": "makeItem",
      "outputs": [],
      "stateMutability": "nonpayable",
      "type": "function"
    },
    {
      "inputs": [],
      "name": "owner",
      "outputs": [
        {
          "internalType": "address",
          "name": "",
          "type": "address"
        }
      ],
      "stateMutability": "view",
      "type": "function"
    },
    {
      "inputs": [
        {
          "internalType": "uint256",
          "name": "",
          "type": "uint256"
        }
      ],
      "name": "owners",
      "outputs": [
        {
          "internalType": "address",
          "name": "",
          "type": "address"
        }
      ],
      "stateMutability": "view",
      "type": "function"
    },
    {
      "inputs": [
        {
          "internalType": "uint256",
          "name": "",
          "type": "uint256"
        }
      ],
      "name": "priceRanges",
      "outputs": [
        {
          "internalType": "uint256",
          "name": "min",
          "type": "uint256"
        },
        {
          "internalType": "uint256",
          "name": "max",
          "type": "uint256"
        },
        {
          "internalType": "uint256",
          "name": "price",
          "type": "uint256"
        }
      ],
      "stateMutability": "view",
      "type": "function"
    },
    {
      "inputs": [],
      "name": "renounceOwnership",
      "outputs": [],
      "stateMutability": "nonpayable",
      "type": "function"
    },
    {
      "inputs": [
        {
          "internalType": "uint256",
          "name": "newPrice1",
          "type": "uint256"
        },
        {
          "internalType": "uint256",
          "name": "newPrice2",
          "type": "uint256"
        },
        {
          "internalType": "uint256",
          "name": "newPrice3",
          "type": "uint256"
        },
        {
          "internalType": "uint256",
          "name": "newPrice4",
          "type": "uint256"
        },
        {
          "internalType": "uint256",
          "name": "newPrice5",
          "type": "uint256"
        }
      ],
      "name": "setRangePrices",
      "outputs": [],
      "stateMutability": "nonpayable",
      "type": "function"
    },
    {
      "inputs": [],
      "name": "sharesCount",
      "outputs": [
        {
          "internalType": "uint256",
          "name": "",
          "type": "uint256"
        }
      ],
      "stateMutability": "view",
      "type": "function"
    },
    {
      "inputs": [
        {
          "internalType": "address",
          "name": "newOwner",
          "type": "address"
        }
      ],
      "name": "transferOwnership",
      "outputs": [],
      "stateMutability": "nonpayable",
      "type": "function"
    },
    {
      "inputs": [
        {
          "internalType": "uint256",
          "name": "_itemId",
          "type": "uint256"
        }
      ],
      "name": "trasnferItem",
      "outputs": [],
      "stateMutability": "nonpayable",
      "type": "function"
    }
  ],
  "bytecode": "0x60c06040523480156200001157600080fd5b506040516200277d3803806200277d833981810160405281019062000037919062000397565b60016000819055506200005f62000053620002b260201b60201c565b620002ba60201b60201c565b3373ffffffffffffffffffffffffffffffffffffffff1660808173ffffffffffffffffffffffffffffffffffffffff1660601b815250508060a0818152505060066040518060600160405280600181526020016004815260200160fa8152509080600181540180825580915050600190039060005260206000209060030201600090919091909150600082015181600001556020820151816001015560408201518160020155505060066040518060600160405280600581526020016009815260200160e18152509080600181540180825580915050600190039060005260206000209060030201600090919091909150600082015181600001556020820151816001015560408201518160020155505060066040518060600160405280600a8152602001600e815260200160cd8152509080600181540180825580915050600190039060005260206000209060030201600090919091909150600082015181600001556020820151816001015560408201518160020155505060066040518060600160405280600f81526020016013815260200160b98152509080600181540180825580915050600190039060005260206000209060030201600090919091909150600082015181600001556020820151816001015560408201518160020155505060066040518060600160405280601481526020016019815260200160b28152509080600181540180825580915050600190039060005260206000209060030201600090919091909150600082015181600001556020820151816001015560408201518160020155505050620003e7565b600033905090565b6000600160009054906101000a900473ffffffffffffffffffffffffffffffffffffffff16905081600160006101000a81548173ffffffffffffffffffffffffffffffffffffffff021916908373ffffffffffffffffffffffffffffffffffffffff1602179055508173ffffffffffffffffffffffffffffffffffffffff168173ffffffffffffffffffffffffffffffffffffffff167f8be0079c531659141344cd1fd0a4f28419497f9722a3daafe3b4186f6b6457e060405160405180910390a35050565b6000815190506200039181620003cd565b92915050565b600060208284031215620003aa57600080fd5b6000620003ba8482850162000380565b91505092915050565b6000819050919050565b620003d881620003c3565b8114620003e457600080fd5b50565b60805160601c60a05161236d620004106000396000610a500152600061099e015261236d6000f3fe608060405234801561001057600080fd5b50600436106101215760003560e01c8063715018a6116100ad5780639d555cfa116100715780639d555cfa1461031e578063bfb231d21461033c578063d3f4e97414610373578063f2fde38b1461038f578063fa00afc7146103ab57610121565b8063715018a61461028c5780637fd6f15c1461029657806385fff858146102b45780638da5cb5b146102e4578063927114df1461030257610121565b80633e7d081f116100f45780633e7d081f146101c0578063438ad7f2146101f05780636030403d1461022057806365e17c9d146102505780636bfb0d011461026e57610121565b8063025e7c27146101265780630ee3f056146101565780631d79a43e1461017257806323b579281461018e575b600080fd5b610140600480360381019061013b91906119bc565b6103c7565b60405161014d9190611c05565b60405180910390f35b610170600480360381019061016b91906119e5565b6103fa565b005b61018c600480360381019061018791906119bc565b61065a565b005b6101a860048036038101906101a391906119bc565b610775565b6040516101b793929190611e74565b60405180910390f35b6101da60048036038101906101d591906119bc565b6107af565b6040516101e79190611db2565b60405180910390f35b61020a600480360381019061020591906119bc565b610922565b6040516102179190611db2565b60405180910390f35b61023a600480360381019061023591906119bc565b610947565b6040516102479190611db2565b60405180910390f35b61025861099c565b6040516102659190611c20565b60405180910390f35b6102766109c0565b6040516102839190611db2565b60405180910390f35b6102946109c6565b005b61029e610a4e565b6040516102ab9190611db2565b60405180910390f35b6102ce60048036038101906102c991906119bc565b610a72565b6040516102db9190611db2565b60405180910390f35b6102ec610a92565b6040516102f99190611c05565b60405180910390f35b61031c600480360381019061031791906119bc565b610abc565b005b610326610bdc565b6040516103339190611db2565b60405180910390f35b610356600480360381019061035191906119bc565b610be2565b60405161036a989796959493929190611dcd565b60405180910390f35b61038d600480360381019061038891906119bc565b610ca4565b005b6103a960048036038101906103a4919061191b565b6112ac565b005b6103c560048036038101906103c0919061196d565b6113a4565b005b60056020528060005260406000206000915054906101000a900473ffffffffffffffffffffffffffffffffffffffff1681565b6104026117f9565b73ffffffffffffffffffffffffffffffffffffffff16610420610a92565b73ffffffffffffffffffffffffffffffffffffffff1614610476576040517f08c379a000000000000000000000000000000000000000000000000000000000815260040161046d90611d32565b60405180910390fd5b6005600680549050146104be576040517f08c379a00000000000000000000000000000000000000000000000000000000081526004016104b590611c92565b60405180910390fd5b8460066000815481106104fa577f4e487b7100000000000000000000000000000000000000000000000000000000600052603260045260246000fd5b90600052602060002090600302016002018190555083600660018154811061054b577f4e487b7100000000000000000000000000000000000000000000000000000000600052603260045260246000fd5b90600052602060002090600302016002018190555082600660028154811061059c577f4e487b7100000000000000000000000000000000000000000000000000000000600052603260045260246000fd5b9060005260206000209060030201600201819055508160066003815481106105ed577f4e487b7100000000000000000000000000000000000000000000000000000000600052603260045260246000fd5b90600052602060002090600302016002018190555080600660048154811061063e577f4e487b7100000000000000000000000000000000000000000000000000000000600052603260045260246000fd5b9060005260206000209060030201600201819055505050505050565b6106626117f9565b73ffffffffffffffffffffffffffffffffffffffff16610680610a92565b73ffffffffffffffffffffffffffffffffffffffff16146106d6576040517f08c379a00000000000000000000000000000000000000000000000000000000081526004016106cd90611d32565b60405180910390fd5b6002600054141561071c576040517f08c379a000000000000000000000000000000000000000000000000000000000815260040161071390611d92565b60405180910390fd5b600260008190555060006004600083815260200190815260200160002090508060050160149054906101000a900460ff16158160050160146101000a81548160ff02191690831515021790555050600160008190555050565b6006818154811061078557600080fd5b90600052602060002090600302016000915090508060000154908060010154908060020154905083565b600080600090505b6006805490508110156108e157600681815481106107fe577f4e487b7100000000000000000000000000000000000000000000000000000000600052603260045260246000fd5b906000526020600020906003020160000154831015801561086a575060068181548110610854577f4e487b7100000000000000000000000000000000000000000000000000000000600052603260045260246000fd5b9060005260206000209060030201600101548311155b156108ce5782600682815481106108aa577f4e487b7100000000000000000000000000000000000000000000000000000000600052603260045260246000fd5b9060005260206000209060030201600201546108c69190611f12565b91505061091d565b80806108d990611ffc565b9150506107b7565b506040517f08c379a000000000000000000000000000000000000000000000000000000000815260040161091490611d72565b60405180910390fd5b919050565b60008061092e83610a72565b9050600061093b826107af565b90508092505050919050565b600060068281548110610983577f4e487b7100000000000000000000000000000000000000000000000000000000600052603260045260246000fd5b9060005260206000209060030201600201549050919050565b7f000000000000000000000000000000000000000000000000000000000000000081565b60025481565b6109ce6117f9565b73ffffffffffffffffffffffffffffffffffffffff166109ec610a92565b73ffffffffffffffffffffffffffffffffffffffff1614610a42576040517f08c379a0000000000000000000000000000000000000000000000000000000008152600401610a3990611d32565b60405180910390fd5b610a4c6000611801565b565b7f000000000000000000000000000000000000000000000000000000000000000081565b600060046000838152602001908152602001600020600301549050919050565b6000600160009054906101000a900473ffffffffffffffffffffffffffffffffffffffff16905090565b60026000541415610b02576040517f08c379a0000000000000000000000000000000000000000000000000000000008152600401610af990611d92565b60405180910390fd5b600260008190555060006004600083815260200190815260200160002090503373ffffffffffffffffffffffffffffffffffffffff168160050160009054906101000a900473ffffffffffffffffffffffffffffffffffffffff1673ffffffffffffffffffffffffffffffffffffffff1614610bb3576040517f08c379a0000000000000000000000000000000000000000000000000000000008152600401610baa90611cb2565b60405180910390fd5b60008160050160156101000a81548160ff02191690831515021790555050600160008190555050565b60035481565b60046020528060005260406000206000915090508060000154908060010160009054906101000a900473ffffffffffffffffffffffffffffffffffffffff16908060020154908060030154908060040160009054906101000a900473ffffffffffffffffffffffffffffffffffffffff16908060050160009054906101000a900473ffffffffffffffffffffffffffffffffffffffff16908060050160149054906101000a900460ff16908060050160159054906101000a900460ff16905088565b60026000541415610cea576040517f08c379a0000000000000000000000000000000000000000000000000000000008152600401610ce190611d92565b60405180910390fd5b60026000819055506000600460008381526020019081526020016000209050600082118015610d1b57506002548211155b610d5a576040517f08c379a0000000000000000000000000000000000000000000000000000000008152600401610d5190611d52565b60405180910390fd5b8060050160159054906101000a900460ff1615610dac576040517f08c379a0000000000000000000000000000000000000000000000000000000008152600401610da390611cd2565b60405180910390fd5b3073ffffffffffffffffffffffffffffffffffffffff168160010160009054906101000a900473ffffffffffffffffffffffffffffffffffffffff1673ffffffffffffffffffffffffffffffffffffffff16636352211e83600201546040518263ffffffff1660e01b8152600401610e249190611db2565b60206040518083038186803b158015610e3c57600080fd5b505afa158015610e50573d6000803e3d6000fd5b505050506040513d601f19601f82011682018060405250810190610e749190611944565b73ffffffffffffffffffffffffffffffffffffffff161461108d578060050160009054906101000a900473ffffffffffffffffffffffffffffffffffffffff1673ffffffffffffffffffffffffffffffffffffffff168160010160009054906101000a900473ffffffffffffffffffffffffffffffffffffffff1673ffffffffffffffffffffffffffffffffffffffff16636352211e83600201546040518263ffffffff1660e01b8152600401610f2b9190611db2565b60206040518083038186803b158015610f4357600080fd5b505afa158015610f57573d6000803e3d6000fd5b505050506040513d601f19601f82011682018060405250810190610f7b9190611944565b73ffffffffffffffffffffffffffffffffffffffff1614610fd1576040517f08c379a0000000000000000000000000000000000000000000000000000000008152600401610fc890611cf2565b60405180910390fd5b8060010160009054906101000a900473ffffffffffffffffffffffffffffffffffffffff1673ffffffffffffffffffffffffffffffffffffffff166323b872dd8260050160009054906101000a900473ffffffffffffffffffffffffffffffffffffffff163084600201546040518463ffffffff1660e01b815260040161105a93929190611c3b565b600060405180830381600087803b15801561107457600080fd5b505af1158015611088573d6000803e3d6000fd5b505050505b8060010160009054906101000a900473ffffffffffffffffffffffffffffffffffffffff1673ffffffffffffffffffffffffffffffffffffffff166323b872dd303384600201546040518463ffffffff1660e01b81526004016110f293929190611c3b565b600060405180830381600087803b15801561110c57600080fd5b505af1158015611120573d6000803e3d6000fd5b5050505060018160050160156101000a81548160ff021916908315150217905550338160050160006101000a81548173ffffffffffffffffffffffffffffffffffffffff021916908373ffffffffffffffffffffffffffffffffffffffff160217905550336005600084815260200190815260200160002060006101000a81548173ffffffffffffffffffffffffffffffffffffffff021916908373ffffffffffffffffffffffffffffffffffffffff1602179055503373ffffffffffffffffffffffffffffffffffffffff168160040160009054906101000a900473ffffffffffffffffffffffffffffffffffffffff1673ffffffffffffffffffffffffffffffffffffffff168260010160009054906101000a900473ffffffffffffffffffffffffffffffffffffffff1673ffffffffffffffffffffffffffffffffffffffff167f801ac3734aaa3093881eaf37c3fa36dbae3009790da3ec1d7323d5528547163a858560020154604051611298929190611e4b565b60405180910390a450600160008190555050565b6112b46117f9565b73ffffffffffffffffffffffffffffffffffffffff166112d2610a92565b73ffffffffffffffffffffffffffffffffffffffff1614611328576040517f08c379a000000000000000000000000000000000000000000000000000000000815260040161131f90611d32565b60405180910390fd5b600073ffffffffffffffffffffffffffffffffffffffff168173ffffffffffffffffffffffffffffffffffffffff161415611398576040517f08c379a000000000000000000000000000000000000000000000000000000000815260040161138f90611c72565b60405180910390fd5b6113a181611801565b50565b6113ac6117f9565b73ffffffffffffffffffffffffffffffffffffffff166113ca610a92565b73ffffffffffffffffffffffffffffffffffffffff1614611420576040517f08c379a000000000000000000000000000000000000000000000000000000000815260040161141790611d32565b60405180910390fd5b60026000541415611466576040517f08c379a000000000000000000000000000000000000000000000000000000000815260040161145d90611d92565b60405180910390fd5b600260008190555060008111801561147f575060198111155b6114be576040517f08c379a00000000000000000000000000000000000000000000000000000000081526004016114b590611d12565b60405180910390fd5b80600360008282546114d09190611ebc565b92505081905550600260008154809291906114ea90611ffc565b91905055508273ffffffffffffffffffffffffffffffffffffffff166323b872dd3330856040518463ffffffff1660e01b815260040161152c93929190611c3b565b600060405180830381600087803b15801561154657600080fd5b505af115801561155a573d6000803e3d6000fd5b5050505060405180610100016040528060025481526020018473ffffffffffffffffffffffffffffffffffffffff1681526020018381526020018281526020013373ffffffffffffffffffffffffffffffffffffffff1681526020013373ffffffffffffffffffffffffffffffffffffffff168152602001600115158152602001600015158152506004600060025481526020019081526020016000206000820151816000015560208201518160010160006101000a81548173ffffffffffffffffffffffffffffffffffffffff021916908373ffffffffffffffffffffffffffffffffffffffff160217905550604082015181600201556060820151816003015560808201518160040160006101000a81548173ffffffffffffffffffffffffffffffffffffffff021916908373ffffffffffffffffffffffffffffffffffffffff16021790555060a08201518160050160006101000a81548173ffffffffffffffffffffffffffffffffffffffff021916908373ffffffffffffffffffffffffffffffffffffffff16021790555060c08201518160050160146101000a81548160ff02191690831515021790555060e08201518160050160156101000a81548160ff0219169083151502179055509050503360056000600254815260200190815260200160002060006101000a81548173ffffffffffffffffffffffffffffffffffffffff021916908373ffffffffffffffffffffffffffffffffffffffff1602179055503373ffffffffffffffffffffffffffffffffffffffff168373ffffffffffffffffffffffffffffffffffffffff167f655a0cf9c8db81512be9a76dc1c5ae5380b8816ce6ad659cd61b715e2999d59a60025485856040516117e493929190611e74565b60405180910390a36001600081905550505050565b600033905090565b6000600160009054906101000a900473ffffffffffffffffffffffffffffffffffffffff16905081600160006101000a81548173ffffffffffffffffffffffffffffffffffffffff021916908373ffffffffffffffffffffffffffffffffffffffff1602179055508173ffffffffffffffffffffffffffffffffffffffff168173ffffffffffffffffffffffffffffffffffffffff167f8be0079c531659141344cd1fd0a4f28419497f9722a3daafe3b4186f6b6457e060405160405180910390a35050565b6000813590506118d6816122f2565b92915050565b6000815190506118eb816122f2565b92915050565b60008135905061190081612309565b92915050565b60008135905061191581612320565b92915050565b60006020828403121561192d57600080fd5b600061193b848285016118c7565b91505092915050565b60006020828403121561195657600080fd5b6000611964848285016118dc565b91505092915050565b60008060006060848603121561198257600080fd5b6000611990868287016118f1565b93505060206119a186828701611906565b92505060406119b286828701611906565b9150509250925092565b6000602082840312156119ce57600080fd5b60006119dc84828501611906565b91505092915050565b600080600080600060a086880312156119fd57600080fd5b6000611a0b88828901611906565b9550506020611a1c88828901611906565b9450506040611a2d88828901611906565b9350506060611a3e88828901611906565b9250506080611a4f88828901611906565b9150509295509295909350565b611a6581611f7e565b82525050565b611a7481611f6c565b82525050565b611a8381611f90565b82525050565b611a9281611fd8565b82525050565b6000611aa5602683611eab565b9150611ab082612074565b604082019050919050565b6000611ac8603f83611eab565b9150611ad3826120c3565b604082019050919050565b6000611aeb602a83611eab565b9150611af682612112565b604082019050919050565b6000611b0e601b83611eab565b9150611b1982612161565b602082019050919050565b6000611b31602583611eab565b9150611b3c8261218a565b604082019050919050565b6000611b54602283611eab565b9150611b5f826121d9565b604082019050919050565b6000611b77602083611eab565b9150611b8282612228565b602082019050919050565b6000611b9a601083611eab565b9150611ba582612251565b602082019050919050565b6000611bbd602683611eab565b9150611bc88261227a565b604082019050919050565b6000611be0601f83611eab565b9150611beb826122c9565b602082019050919050565b611bff81611fce565b82525050565b6000602082019050611c1a6000830184611a6b565b92915050565b6000602082019050611c356000830184611a5c565b92915050565b6000606082019050611c506000830186611a6b565b611c5d6020830185611a6b565b611c6a6040830184611bf6565b949350505050565b60006020820190508181036000830152611c8b81611a98565b9050919050565b60006020820190508181036000830152611cab81611abb565b9050919050565b60006020820190508181036000830152611ccb81611ade565b9050919050565b60006020820190508181036000830152611ceb81611b01565b9050919050565b60006020820190508181036000830152611d0b81611b24565b9050919050565b60006020820190508181036000830152611d2b81611b47565b9050919050565b60006020820190508181036000830152611d4b81611b6a565b9050919050565b60006020820190508181036000830152611d6b81611b8d565b9050919050565b60006020820190508181036000830152611d8b81611bb0565b9050919050565b60006020820190508181036000830152611dab81611bd3565b9050919050565b6000602082019050611dc76000830184611bf6565b92915050565b600061010082019050611de3600083018b611bf6565b611df0602083018a611a89565b611dfd6040830189611bf6565b611e0a6060830188611bf6565b611e176080830187611a5c565b611e2460a0830186611a6b565b611e3160c0830185611a7a565b611e3e60e0830184611a7a565b9998505050505050505050565b6000604082019050611e606000830185611bf6565b611e6d6020830184611bf6565b9392505050565b6000606082019050611e896000830186611bf6565b611e966020830185611bf6565b611ea36040830184611bf6565b949350505050565b600082825260208201905092915050565b6000611ec782611fce565b9150611ed283611fce565b9250827fffffffffffffffffffffffffffffffffffffffffffffffffffffffffffffffff03821115611f0757611f06612045565b5b828201905092915050565b6000611f1d82611fce565b9150611f2883611fce565b9250817fffffffffffffffffffffffffffffffffffffffffffffffffffffffffffffffff0483118215151615611f6157611f60612045565b5b828202905092915050565b6000611f7782611fae565b9050919050565b6000611f8982611fae565b9050919050565b60008115159050919050565b6000611fa782611f6c565b9050919050565b600073ffffffffffffffffffffffffffffffffffffffff82169050919050565b6000819050919050565b6000611fe382611fea565b9050919050565b6000611ff582611fae565b9050919050565b600061200782611fce565b91507fffffffffffffffffffffffffffffffffffffffffffffffffffffffffffffffff82141561203a57612039612045565b5b600182019050919050565b7f4e487b7100000000000000000000000000000000000000000000000000000000600052601160045260246000fd5b7f4f776e61626c653a206e6577206f776e657220697320746865207a65726f206160008201527f6464726573730000000000000000000000000000000000000000000000000000602082015250565b7f456c2061727261792064652072616e676f732064652070726563696f2064656260008201527f652074656e6572206578616374616d656e7465203520656c656d656e746f7300602082015250565b7f6f6e6c7920746865206f776e6572206f6620746865204e46542063616e206f7060008201527f656e20746f2073616c6500000000000000000000000000000000000000000000602082015250565b7f65737465204e4654206e6f20657374612061206c612076656e74610000000000600082015250565b7f456c2070726f706965746172696f207265676973747261646f206e6f20636f6960008201527f6e63696465000000000000000000000000000000000000000000000000000000602082015250565b7f6465626520736572206d61796f7572206120312079206d656e6f72207175652060008201527f3235000000000000000000000000000000000000000000000000000000000000602082015250565b7f4f776e61626c653a2063616c6c6572206973206e6f7420746865206f776e6572600082015250565b7f656c206e6674206e6f2065786973746500000000000000000000000000000000600082015250565b7f43616e7469646164206675657261206465206c6f732072616e676f732064656660008201527f696e69646f730000000000000000000000000000000000000000000000000000602082015250565b7f5265656e7472616e637947756172643a207265656e7472616e742063616c6c00600082015250565b6122fb81611f6c565b811461230657600080fd5b50565b61231281611f9c565b811461231d57600080fd5b50565b61232981611fce565b811461233457600080fd5b5056fea2646970667358221220fb3849920bfe14a47c4c15353b93b00979683996f65ff127069d9e435f6ea59d64736f6c63430008040033",
  "linkReferences": {},
  "deployedLinkReferences": {}
}